{
  "contractName": "EcommerceStore",
  "abi": [
    {
      "constant": true,
      "inputs": [],
      "name": "productIndex",
      "outputs": [
        {
          "name": "",
          "type": "uint256"
        }
      ],
      "payable": false,
      "stateMutability": "view",
      "type": "function"
    },
    {
      "inputs": [],
      "payable": false,
      "stateMutability": "nonpayable",
      "type": "constructor"
    },
    {
      "constant": false,
      "inputs": [
        {
          "name": "_productId",
          "type": "uint256"
        },
        {
          "name": "_bid",
          "type": "bytes32"
        }
      ],
      "name": "bid",
      "outputs": [
        {
          "name": "",
          "type": "bool"
        }
      ],
      "payable": true,
      "stateMutability": "payable",
      "type": "function"
    },
    {
      "constant": false,
      "inputs": [
        {
          "name": "_productId",
          "type": "uint256"
        },
        {
          "name": "_amount",
          "type": "string"
        },
        {
          "name": "_secret",
          "type": "string"
        }
      ],
      "name": "revealBid",
      "outputs": [],
      "payable": false,
      "stateMutability": "nonpayable",
      "type": "function"
    },
    {
      "constant": true,
      "inputs": [
        {
          "name": "_productId",
          "type": "uint256"
        }
      ],
      "name": "highestBidderInfo",
      "outputs": [
        {
          "name": "",
          "type": "address"
        },
        {
          "name": "",
          "type": "uint256"
        },
        {
          "name": "",
          "type": "uint256"
        }
      ],
      "payable": false,
      "stateMutability": "view",
      "type": "function"
    },
    {
      "constant": true,
      "inputs": [
        {
          "name": "_productId",
          "type": "uint256"
        }
      ],
      "name": "totalBids",
      "outputs": [
        {
          "name": "",
          "type": "uint256"
        }
      ],
      "payable": false,
      "stateMutability": "view",
      "type": "function"
    },
    {
      "constant": false,
      "inputs": [
        {
          "name": "_name",
          "type": "string"
        },
        {
          "name": "_category",
          "type": "string"
        },
        {
          "name": "_imageLink",
          "type": "string"
        },
        {
          "name": "_descLink",
          "type": "string"
        },
        {
          "name": "_auctionStartTime",
          "type": "uint256"
        },
        {
          "name": "_auctionEndTime",
          "type": "uint256"
        },
        {
          "name": "_startPrice",
          "type": "uint256"
        },
        {
          "name": "_productCondition",
          "type": "uint256"
        }
      ],
      "name": "addProductToStore",
      "outputs": [],
      "payable": false,
      "stateMutability": "nonpayable",
      "type": "function"
    },
    {
      "constant": true,
      "inputs": [
        {
          "name": "_productId",
          "type": "uint256"
        }
      ],
      "name": "getProduct",
      "outputs": [
        {
          "name": "",
          "type": "uint256"
        },
        {
          "name": "",
          "type": "string"
        },
        {
          "name": "",
          "type": "string"
        },
        {
          "name": "",
          "type": "string"
        },
        {
          "name": "",
          "type": "string"
        },
        {
          "name": "",
          "type": "uint256"
        },
        {
          "name": "",
          "type": "uint256"
        },
        {
          "name": "",
          "type": "uint256"
        },
        {
          "name": "",
          "type": "uint8"
        },
        {
          "name": "",
          "type": "uint8"
        }
      ],
      "payable": false,
      "stateMutability": "view",
      "type": "function"
    }
  ],
  "bytecode": "0x608060405234801561001057600080fd5b50600060028190555061213f806100286000396000f300608060405260043610610083576000357c0100000000000000000000000000000000000000000000000000000000900463ffffffff16806328e3d19014610088578063a508b955146100c9578063b9db15b41461022c578063c897d5a61461045c578063ce818ea914610487578063ea1591bb14610502578063f85f196e14610548575b600080fd5b34801561009457600080fd5b506100b360048036038101908080359060200190929190505050610601565b6040518082815260200191505060405180910390f35b3480156100d557600080fd5b5061022a600480360381019080803590602001908201803590602001908080601f0160208091040260200160405190810160405280939291908181526020018383808284378201915050505050509192919290803590602001908201803590602001908080601f0160208091040260200160405190810160405280939291908181526020018383808284378201915050505050509192919290803590602001908201803590602001908080601f0160208091040260200160405190810160405280939291908181526020018383808284378201915050505050509192919290803590602001908201803590602001908080601f016020809104026020016040519081016040528093929190818152602001838380828437820191505050505050919291929080359060200190929190803590602001909291908035906020019092919080359060200190929190505050610a28565b005b34801561023857600080fd5b5061025760048036038101908080359060200190929190505050610cfb565b604051808b8152602001806020018060200180602001806020018a815260200189815260200188815260200187600281111561028f57fe5b60ff1681526020018660018111156102a357fe5b60ff16815260200185810385528e818151815260200191508051906020019080838360005b838110156102e35780820151818401526020810190506102c8565b50505050905090810190601f1680156103105780820380516001836020036101000a031916815260200191505b5085810384528d818151815260200191508051906020019080838360005b8381101561034957808201518184015260208101905061032e565b50505050905090810190601f1680156103765780820380516001836020036101000a031916815260200191505b5085810383528c818151815260200191508051906020019080838360005b838110156103af578082015181840152602081019050610394565b50505050905090810190601f1680156103dc5780820380516001836020036101000a031916815260200191505b5085810382528b818151815260200191508051906020019080838360005b838110156104155780820151818401526020810190506103fa565b50505050905090810190601f1680156104425780820380516001836020036101000a031916815260200191505b509e50505050505050505050505050505060405180910390f35b34801561046857600080fd5b50610471611184565b6040518082815260200191505060405180910390f35b34801561049357600080fd5b506104b26004803603810190808035906020019092919050505061118a565b604051808473ffffffffffffffffffffffffffffffffffffffff1673ffffffffffffffffffffffffffffffffffffffff168152602001838152602001828152602001935050505060405180910390f35b61052e6004803603810190808035906020019092919080356000191690602001909291905050506115c6565b604051808215151515815260200191505060405180910390f35b34801561055457600080fd5b506105ff60048036038101908080359060200190929190803590602001908201803590602001908080601f0160208091040260200160405190810160405280939291908181526020018383808284378201915050505050509192919290803590602001908201803590602001908080601f0160208091040260200160405190810160405280939291908181526020018383808284378201915050505050509192919290505050611858565b005b600061060b611f91565b6000806001600086815260200190815260200160002060009054906101000a900473ffffffffffffffffffffffffffffffffffffffff1673ffffffffffffffffffffffffffffffffffffffff1673ffffffffffffffffffffffffffffffffffffffff16815260200190815260200160002060008481526020019081526020016000206101c0604051908101604052908160008201548152602001600182018054600181600116156101000203166002900480601f01602080910402602001604051908101604052809291908181526020018280546001816001161561010002031660029004801561073d5780601f106107125761010080835404028352916020019161073d565b820191906000526020600020905b81548152906001019060200180831161072057829003601f168201915b50505050508152602001600282018054600181600116156101000203166002900480601f0160208091040260200160405190810160405280929190818152602001828054600181600116156101000203166002900480156107df5780601f106107b4576101008083540402835291602001916107df565b820191906000526020600020905b8154815290600101906020018083116107c257829003601f168201915b50505050508152602001600382018054600181600116156101000203166002900480601f0160208091040260200160405190810160405280929190818152602001828054600181600116156101000203166002900480156108815780601f1061085657610100808354040283529160200191610881565b820191906000526020600020905b81548152906001019060200180831161086457829003601f168201915b50505050508152602001600482018054600181600116156101000203166002900480601f0160208091040260200160405190810160405280929190818152602001828054600181600116156101000203166002900480156109235780601f106108f857610100808354040283529160200191610923565b820191906000526020600020905b81548152906001019060200180831161090657829003601f168201915b505050505081526020016005820154815260200160068201548152602001600782015481526020016008820160009054906101000a900473ffffffffffffffffffffffffffffffffffffffff1673ffffffffffffffffffffffffffffffffffffffff1673ffffffffffffffffffffffffffffffffffffffff16815260200160098201548152602001600a8201548152602001600b8201548152602001600c820160009054906101000a900460ff1660028111156109dc57fe5b60028111156109e757fe5b8152602001600c820160019054906101000a900460ff166001811115610a0957fe5b6001811115610a1457fe5b815250509050806101600151915050919050565b610a30611f91565b8385101515610a3e57600080fd5b60016002600082825401925050819055506101c06040519081016040528060025481526020018a8152602001898152602001888152602001878152602001868152602001858152602001848152602001600073ffffffffffffffffffffffffffffffffffffffff16815260200160008152602001600081526020016000815260200160006002811115610acd57fe5b8152602001836001811115610ade57fe5b6001811115610ae957fe5b8152509050806000803373ffffffffffffffffffffffffffffffffffffffff1673ffffffffffffffffffffffffffffffffffffffff16815260200190815260200160002060006002548152602001908152602001600020600082015181600001556020820151816001019080519060200190610b6692919061202d565b506040820151816002019080519060200190610b8392919061202d565b506060820151816003019080519060200190610ba092919061202d565b506080820151816004019080519060200190610bbd92919061202d565b5060a0820151816005015560c0820151816006015560e082015181600701556101008201518160080160006101000a81548173ffffffffffffffffffffffffffffffffffffffff021916908373ffffffffffffffffffffffffffffffffffffffff160217905550610120820151816009015561014082015181600a015561016082015181600b015561018082015181600c0160006101000a81548160ff02191690836002811115610c6a57fe5b02179055506101a082015181600c0160016101000a81548160ff02191690836001811115610c9457fe5b02179055509050503360016000600254815260200190815260200160002060006101000a81548173ffffffffffffffffffffffffffffffffffffffff021916908373ffffffffffffffffffffffffffffffffffffffff160217905550505050505050505050565b60006060806060806000806000806000610d13611f91565b600080600160008f815260200190815260200160002060009054906101000a900473ffffffffffffffffffffffffffffffffffffffff1673ffffffffffffffffffffffffffffffffffffffff1673ffffffffffffffffffffffffffffffffffffffff16815260200190815260200160002060008d81526020019081526020016000206101c0604051908101604052908160008201548152602001600182018054600181600116156101000203166002900480601f016020809104026020016040519081016040528092919081815260200182805460018160011615610100020316600290048015610e455780601f10610e1a57610100808354040283529160200191610e45565b820191906000526020600020905b815481529060010190602001808311610e2857829003601f168201915b50505050508152602001600282018054600181600116156101000203166002900480601f016020809104026020016040519081016040528092919081815260200182805460018160011615610100020316600290048015610ee75780601f10610ebc57610100808354040283529160200191610ee7565b820191906000526020600020905b815481529060010190602001808311610eca57829003601f168201915b50505050508152602001600382018054600181600116156101000203166002900480601f016020809104026020016040519081016040528092919081815260200182805460018160011615610100020316600290048015610f895780601f10610f5e57610100808354040283529160200191610f89565b820191906000526020600020905b815481529060010190602001808311610f6c57829003601f168201915b50505050508152602001600482018054600181600116156101000203166002900480601f01602080910402602001604051908101604052809291908181526020018280546001816001161561010002031660029004801561102b5780601f106110005761010080835404028352916020019161102b565b820191906000526020600020905b81548152906001019060200180831161100e57829003601f168201915b505050505081526020016005820154815260200160068201548152602001600782015481526020016008820160009054906101000a900473ffffffffffffffffffffffffffffffffffffffff1673ffffffffffffffffffffffffffffffffffffffff1673ffffffffffffffffffffffffffffffffffffffff16815260200160098201548152602001600a8201548152602001600b8201548152602001600c820160009054906101000a900460ff1660028111156110e457fe5b60028111156110ef57fe5b8152602001600c820160019054906101000a900460ff16600181111561111157fe5b600181111561111c57fe5b815250509050806000015181602001518260400151836060015184608001518560a001518660c001518760e00151886101800151896101a001518898508797508696508595509a509a509a509a509a509a509a509a509a509a50509193959799509193959799565b60025481565b6000806000611197611f91565b6000806001600088815260200190815260200160002060009054906101000a900473ffffffffffffffffffffffffffffffffffffffff1673ffffffffffffffffffffffffffffffffffffffff1673ffffffffffffffffffffffffffffffffffffffff16815260200190815260200160002060008681526020019081526020016000206101c0604051908101604052908160008201548152602001600182018054600181600116156101000203166002900480601f0160208091040260200160405190810160405280929190818152602001828054600181600116156101000203166002900480156112c95780601f1061129e576101008083540402835291602001916112c9565b820191906000526020600020905b8154815290600101906020018083116112ac57829003601f168201915b50505050508152602001600282018054600181600116156101000203166002900480601f01602080910402602001604051908101604052809291908181526020018280546001816001161561010002031660029004801561136b5780601f106113405761010080835404028352916020019161136b565b820191906000526020600020905b81548152906001019060200180831161134e57829003601f168201915b50505050508152602001600382018054600181600116156101000203166002900480601f01602080910402602001604051908101604052809291908181526020018280546001816001161561010002031660029004801561140d5780601f106113e25761010080835404028352916020019161140d565b820191906000526020600020905b8154815290600101906020018083116113f057829003601f168201915b50505050508152602001600482018054600181600116156101000203166002900480601f0160208091040260200160405190810160405280929190818152602001828054600181600116156101000203166002900480156114af5780601f10611484576101008083540402835291602001916114af565b820191906000526020600020905b81548152906001019060200180831161149257829003601f168201915b505050505081526020016005820154815260200160068201548152602001600782015481526020016008820160009054906101000a900473ffffffffffffffffffffffffffffffffffffffff1673ffffffffffffffffffffffffffffffffffffffff1673ffffffffffffffffffffffffffffffffffffffff16815260200160098201548152602001600a8201548152602001600b8201548152602001600c820160009054906101000a900460ff16600281111561156857fe5b600281111561157357fe5b8152602001600c820160019054906101000a900460ff16600181111561159557fe5b60018111156115a057fe5b815250509050806101000151816101200151826101400151935093509350509193909250565b6000806000806001600087815260200190815260200160002060009054906101000a900473ffffffffffffffffffffffffffffffffffffffff1673ffffffffffffffffffffffffffffffffffffffff1673ffffffffffffffffffffffffffffffffffffffff168152602001908152602001600020600085815260200190815260200160002090508060050154421015151561166057600080fd5b8060060154421115151561167357600080fd5b80600701543411151561168557600080fd5b600081600d0160003373ffffffffffffffffffffffffffffffffffffffff1673ffffffffffffffffffffffffffffffffffffffff1681526020019081526020016000206000856000191660001916815260200190815260200160002060000160009054906101000a900473ffffffffffffffffffffffffffffffffffffffff1673ffffffffffffffffffffffffffffffffffffffff1614151561172757600080fd5b6080604051908101604052803373ffffffffffffffffffffffffffffffffffffffff1681526020018581526020013481526020016000151581525081600d0160003373ffffffffffffffffffffffffffffffffffffffff1673ffffffffffffffffffffffffffffffffffffffff1681526020019081526020016000206000856000191660001916815260200190815260200160002060008201518160000160006101000a81548173ffffffffffffffffffffffffffffffffffffffff021916908373ffffffffffffffffffffffffffffffffffffffff160217905550602082015181600101556040820151816002015560608201518160030160006101000a81548160ff021916908315150217905550905050600181600b0160008282540192505081905550600191505092915050565b6000806118636120ad565b600080600080600160008b815260200190815260200160002060009054906101000a900473ffffffffffffffffffffffffffffffffffffffff1673ffffffffffffffffffffffffffffffffffffffff1673ffffffffffffffffffffffffffffffffffffffff168152602001908152602001600020600089815260200190815260200160002094508460060154421115156118fc57600080fd5b86866040518083805190602001908083835b602083101515611933578051825260208201915060208101905060208303925061190e565b6001836020036101000a03801982511681845116808217855250505050505090500182805190602001908083835b6020831015156119865780518252602082019150602081019050602083039250611961565b6001836020036101000a038019825116818451168082178552505050505050905001925050506040518091039020935084600d0160003373ffffffffffffffffffffffffffffffffffffffff1673ffffffffffffffffffffffffffffffffffffffff16815260200190815260200160002060008560001916600019168152602001908152602001600020608060405190810160405290816000820160009054906101000a900473ffffffffffffffffffffffffffffffffffffffff1673ffffffffffffffffffffffffffffffffffffffff1673ffffffffffffffffffffffffffffffffffffffff16815260200160018201548152602001600282015481526020016003820160009054906101000a900460ff16151515158152505092506000836000015173ffffffffffffffffffffffffffffffffffffffff16111515611acc57600080fd5b6000151583606001511515141515611ae357600080fd5b611aec87611d87565b90508083604001511015611b065782604001519150611cb6565b60008560080160009054906101000a900473ffffffffffffffffffffffffffffffffffffffff1673ffffffffffffffffffffffffffffffffffffffff161415611bb057338560080160006101000a81548173ffffffffffffffffffffffffffffffffffffffff021916908373ffffffffffffffffffffffffffffffffffffffff160217905550808560090181905550846007015485600a0181905550808360400151039150611cb5565b8460090154811115611c9257846009015485600a01819055508460080160009054906101000a900473ffffffffffffffffffffffffffffffffffffffff1673ffffffffffffffffffffffffffffffffffffffff166108fc86600901549081150290604051600060405180830381858888f19350505050158015611c37573d6000803e3d6000fd5b50338560080160006101000a81548173ffffffffffffffffffffffffffffffffffffffff021916908373ffffffffffffffffffffffffffffffffffffffff160217905550808560090181905550808360400151039150611cb4565b84600a0154811115611caf578085600a0181905550809150611cb3565b8091505b5b5b5b600185600d0160003373ffffffffffffffffffffffffffffffffffffffff1673ffffffffffffffffffffffffffffffffffffffff1681526020019081526020016000206000866000191660001916815260200190815260200160002060030160006101000a81548160ff0219169083151502179055506000821115611d7d573373ffffffffffffffffffffffffffffffffffffffff166108fc839081150290604051600060405180830381858888f19350505050158015611d7b573d6000803e3d6000fd5b505b5050505050505050565b6000606060008084925060009150600090505b8251811015611f865760307f0100000000000000000000000000000000000000000000000000000000000000028382815181101515611dd557fe5b9060200101517f010000000000000000000000000000000000000000000000000000000000000090047f0100000000000000000000000000000000000000000000000000000000000000027effffffffffffffffffffffffffffffffffffffffffffffffffffffffffffff191610158015611eed575060397f0100000000000000000000000000000000000000000000000000000000000000028382815181101515611e7d57fe5b9060200101517f010000000000000000000000000000000000000000000000000000000000000090047f0100000000000000000000000000000000000000000000000000000000000000027effffffffffffffffffffffffffffffffffffffffffffffffffffffffffffff191611155b15611f795760308382815181101515611f0257fe5b9060200101517f010000000000000000000000000000000000000000000000000000000000000090047f0100000000000000000000000000000000000000000000000000000000000000027f0100000000000000000000000000000000000000000000000000000000000000900403600a83020191505b8080600101915050611d9a565b819350505050919050565b6101c0604051908101604052806000815260200160608152602001606081526020016060815260200160608152602001600081526020016000815260200160008152602001600073ffffffffffffffffffffffffffffffffffffffff1681526020016000815260200160008152602001600081526020016000600281111561201557fe5b81526020016000600181111561202757fe5b81525090565b828054600181600116156101000203166002900490600052602060002090601f016020900481019282601f1061206e57805160ff191683800117855561209c565b8280016001018555821561209c579182015b8281111561209b578251825591602001919060010190612080565b5b5090506120a991906120ee565b5090565b608060405190810160405280600073ffffffffffffffffffffffffffffffffffffffff16815260200160008152602001600081526020016000151581525090565b61211091905b8082111561210c5760008160009055506001016120f4565b5090565b905600a165627a7a723058202d0155815b6b32899aa9ad53c6945bb8f937c0d1a5eb5af2608522b4ed1832ef0029",
  "source": "pragma solidity ^0.4.13;\r\n\r\ncontract EcommerceStore {\r\n\t// 枚举类型标识状态变量\r\n\tenum ProductStatus { Open, Sold, Unsold }\r\n \tenum ProductCondition { New, Used }\r\n\r\n\tstruct Product {\r\n\t\t// 商品基本信息\r\n\t\tuint id; \t\t\t//商品编号,全局递增\r\n\t\tstring name; \t\t//商品名称\r\n\t\tstring category; \t//商品类别\r\n\t\tstring imageLink;\t//商品图片链接地址\r\n\t\tstring descLink;\t//商品描述连接地址\r\n\t\t// 拍卖相关信息\r\n\t\tuint auctionStartTime;\t//拍卖开始时间\r\n\t\tuint auctionEndTime;\t//拍卖截止时间\r\n\t\tuint startPrice;\t\t//起拍价格\r\n\t\taddress\thighestBidder;\t//出最高价者\r\n\t\tuint highestBid;\t\t//最高出价\r\n\t\tuint secondHighestBid;\t//次高出价\r\n\t\tuint totalBids;\t\t\t//投标者人数\r\n\t\t// 商品状态\r\n\t\tProductStatus status;\t\t//商品销售状态\r\n\t\tProductCondition condition;\t//品相: 新品、二手\r\n\t\t// 出价信息\r\n\t\t// bids状态是一个嵌套的映射表，它将竞价者的账户地址映射到买家对该商品的密封出价表中\r\n\t\t// bytes32 代表密封出价的哈希值\r\n\t\tmapping (address => mapping (bytes32 => Bid)) bids;\r\n\t}\r\n\r\n\t// 每一条出价信息\r\n\tstruct Bid {\r\n  \t\taddress bidder;  //竞价者账户地址\r\n  \t\tuint productId;  //商品编号\r\n  \t\tuint value;      //支付的保证金\r\n  \t\tbool revealed;   //是否揭示过出价\r\n\t}\r\n\r\n\t// 买家出价\r\n\tfunction bid(\r\n      uint _productId,  //商品编号\r\n      bytes32 _bid      //密封出价哈希值\r\n    ) payable public    //可接受资金支付\r\n    returns (bool) {\r\n\t\t//利用商品编号提取商品数据\r\n  \t\tProduct storage product = stores[productIdInStore[_productId]][_productId];\r\n  \t\t//当前还处于竞价有效期内\r\n  \t\trequire (now >= product.auctionStartTime);\r\n  \t\trequire (now <= product.auctionEndTime);\r\n  \t\t//支付的保证金高于商品起拍价\r\n  \t\trequire (msg.value > product.startPrice);\r\n  \t\t//竞价人首次递交该出价\r\n  \t\trequire (product.bids[msg.sender][_bid].bidder == 0);\r\n  \t\t//保存出价信息\r\n  \t\tproduct.bids[msg.sender][_bid] = Bid(msg.sender, _productId, msg.value, false);\r\n  \t\t//更新竞价参与人数\r\n  \t\tproduct.totalBids += 1;\r\n  \t\treturn true;\r\n\t}\r\n\r\n\t// 揭示真实出价\r\n\tfunction revealBid(\r\n      uint _productId,  //商品编号\r\n      string _amount,   //真实出价\r\n      string _secret    //提交密封出价时使用的密文\r\n    ) public {\r\n\t\t//利用商品编号提取商品数据\r\n  \t\tProduct storage product = stores[productIdInStore[_productId]][_productId];\r\n  \t\t//确认拍卖已经截止\r\n  \t\trequire (now > product.auctionEndTime);\r\n\r\n  \t\t//验证声称出价的有效性 计算哈希值\r\n\t\t//secret 应该是盐\r\n  \t\tbytes32 sealedBid = keccak256(_amount, _secret);\r\n  \t\tBid memory bidInfo = product.bids[msg.sender][sealedBid];\r\n\t\t// 如果当前出价下存在记录并且价格没有被揭示\r\n  \t\trequire (bidInfo.bidder > 0);\r\n  \t\trequire (bidInfo.revealed == false);\r\n\r\n  \t\tuint refund; //返还金额\r\n  \t\tuint amount = stringToUint(_amount); //出价\r\n\r\n  \t\tif(bidInfo.value < amount) { //如果支付的保证金少于声称的出价，则视为失败\r\n    \t\trefund = bidInfo.value;\r\n  \t\t} else {\r\n    \t\tif (address(product.highestBidder) == 0) { //第一个揭示价格的竞价人，初始化最高价和次高价\r\n     \t\t \tproduct.highestBidder = msg.sender;\r\n      \t\t\tproduct.highestBid = amount;\r\n      \t\t\tproduct.secondHighestBid = product.startPrice;\r\n      \t\t\trefund = bidInfo.value - amount;\r\n    \t\t} else {\r\n      \t\t\tif (amount > product.highestBid) { //出价高于已知的最高出价\r\n        \t\t\tproduct.secondHighestBid = product.highestBid;\r\n\t\t\t\t\t// 将之前出最高价人的钱还回去\r\n        \t\t\tproduct.highestBidder.transfer(product.highestBid);\r\n        \t\t\tproduct.highestBidder = msg.sender;\r\n        \t\t\tproduct.highestBid = amount;\r\n\t\t\t\t\t// 设置退回的钱 = 保证金 - 实际报价\r\n        \t\t\trefund = bidInfo.value - amount;\r\n      \t\t\t} else if (amount > product.secondHighestBid) { //出价高于已知的次高出价\r\n        \t\t\tproduct.secondHighestBid = amount;\r\n\t\t\t\t\t// 全款退回，将次高价格设置为当前价格\r\n        \t\t\trefund = amount;\r\n      \t\t\t} else { //如果出价不能胜出前两个价格，则视为失败\r\n        \t\t\trefund = amount;\r\n      \t\t\t}\r\n    \t\t}\r\n  \t\t}\r\n  \t\t//更新当前用户出价揭示标志\r\n  \t\tproduct.bids[msg.sender][sealedBid].revealed = true;\r\n\r\n  \t\tif (refund > 0) { //原路返还保证金\r\n    \t\tmsg.sender.transfer(refund);\r\n  \t\t}\r\n\t}\r\n\r\n\t// 将买家出价转换为整型数据\r\n\tfunction stringToUint(string s) pure private returns (uint) {\r\n\t  bytes memory b = bytes(s);\r\n\t  uint result = 0;\r\n\t  for (uint i = 0; i < b.length; i++) {\r\n\t    if (b[i] >= 48 && b[i] <= 57) {\r\n\t      result = result * 10 + (uint(b[i]) - 48);\r\n\t    }\r\n\t  }\r\n\t  return result;\r\n\t}\r\n\r\n\t// 展示最高出价结果 最高出价者，最高出价，次高出价\r\n\tfunction highestBidderInfo(uint _productId) view public returns (address, uint, uint) {\r\n  \t\tProduct memory product = stores[productIdInStore[_productId]][_productId];\r\n  \t\treturn (product.highestBidder, product.highestBid, product.secondHighestBid);\r\n\t}\r\n\r\n\t// 展示最终出价人数\r\n\tfunction totalBids(uint _productId) view public returns (uint) {\r\n  \t\tProduct memory product = stores[productIdInStore[_productId]][_productId];\r\n  \t\treturn product.totalBids;\r\n\t}\r\n\r\n\t// 所有卖家的商品信息，都保存在商品目录表, 也就是如下定义的合约的stores状态中。\r\n\t// 使用一个嵌套的mapping来区分不同卖家的商品：\r\n\t// 键为卖家的账户地址，值为另一个mapping —— 从商品编号到商品信息的映射：\r\n\tmapping (address => mapping(uint => Product)) stores;\r\n\t// 由于无法从上面的mapping中由值获取键也就是商家，故设置一个反查mapping来方便按照商品查询商家信息\r\n\tmapping (uint => address) productIdInStore;\r\n\r\n\t// 全局计数器，用来递增商品编号\r\n\tuint public productIndex;\r\n\r\n\t// 构造函数\r\n\tconstructor() public {productIndex = 0;}\r\n\r\n\t// 商家上架新商品\r\n\t// 可视性声明为public 因为需要从外部调用这个方法\r\n\tfunction addProductToStore(\r\n      string _name,           //Product.name - 商品名称\r\n      string _category,       //Product.category - 商品类别\r\n      string _imageLink,      //Product.imageLink - 商品图片链接\r\n      string _descLink,       //Product.descLink - 商品描述文本链接\r\n      uint _auctionStartTime, //Product.auctionStartTime - 拍卖开始时间\r\n      uint _auctionEndTime,   //Product.auctionEndTime - 拍卖截止时间\r\n      uint _startPrice,       //Product.startPrice - 起拍价格 \r\n      uint _productCondition  //Product.productCondition - 商品品相\r\n    ) public {\r\n\t\t//拍卖截止时间应当晚于开始时间\r\n  \t\trequire (_auctionStartTime < _auctionEndTime);\r\n  \t\t//商品编号计数器递增\r\n  \t\tproductIndex += 1;\r\n  \t\t// 构造Product结构变量\r\n\t\t// 在solidity中，局部变量例如product的默认存储位置是storage，也就是持久化的。 \r\n\t\t// 我们将product变量的存储位置声明为memory，是为了告诉EVM将其视为临时变量， \r\n\t\t// 一旦函数执行完毕，EVM就会将它从内存中清除。\r\n  \t\tProduct memory product = \r\n\t\t  Product(\r\n\t\t\t  \tproductIndex,\t\t// id\r\n\t\t   \t\t_name, \t\t\t\t// 名字\r\n\t\t   \t\t_category, \t\t\t// 类别\r\n\t\t   \t\t_imageLink, \t\t// 图片链接\r\n        \t\t_descLink,\t\t\t// 描述连接\r\n\t\t\t\t_auctionStartTime, \t// 拍卖开始时间\r\n\t\t\t\t_auctionEndTime,\t// 拍卖结束时间\r\n            \t_startPrice, \t\t// 起拍价\r\n\t\t\t\t0, 0, 0, 0, \t\t// 最高出价者地址，最高出价，次高出价，出价人数\r\n\t\t\t\tProductStatus.Open, // 默认开启商品竞拍状态\r\n            \tProductCondition(_productCondition));\t// 商品品相\r\n  \t\t//存入商品目录表                   \r\n  \t\tstores[msg.sender][productIndex] = product;\r\n  \t\t//保存商品反查表\r\n  \t\tproductIdInStore[productIndex] = msg.sender;\r\n\t}\r\n\r\n    // 查看商品信息\r\n\t// view关键字用来告诉以太坊虚拟机，\r\n\t// 这是一个只读的方法 —— 只读取合约的状态，\r\n\t// 而不会修改合约的状态。执行只读的方法不会消耗gas。\r\n\tfunction getProduct(\r\n      uint _productId  //商品编号\r\n    ) view public \r\n    returns (uint, string, string, string, string, uint, uint, uint, ProductStatus, ProductCondition) {\r\n\t\t// 利用商品编号提取商品信息，临时变量会在执行后被删除\r\n\t\t// 首先通过商品编号反查商家，然后通过商家中的商品编号来查看商品信息\r\n  \t\tProduct memory product = stores[productIdInStore[_productId]][_productId];\r\n  \t\t//按照定义的先后顺序依次返回product结构各成员\r\n  \t\treturn (product.id, product.name, product.category, product.imageLink, \r\n      \t\t\tproduct.descLink, product.auctionStartTime,\r\n      \t\t\tproduct.auctionEndTime, product.startPrice, product.status, product.condition);\r\n\t}\r\n}",
  "sourcePath": "/var/www/html/tap4fun/WrappedChain/contracts/EcommerceStore.sol",
  "compiler": {
    "name": "solc",
    "version": "0.4.24+commit.e67f0147.Emscripten.clang"
  },
  "schemaVersion": "2.0.1",
  "updatedAt": "2018-08-17T03:46:46.400Z"
}