{
  "contractName": "OurCoins",
  "abi": [
    {
      "constant": true,
      "inputs": [
        {
          "name": "",
          "type": "address"
        }
      ],
      "name": "userAddressInfo",
      "outputs": [
        {
          "name": "userId",
          "type": "uint256"
        },
        {
          "name": "userAddress",
          "type": "address"
        },
        {
          "name": "tokensBought",
          "type": "uint256"
        },
        {
          "name": "tokensBalance",
          "type": "uint256"
        },
        {
          "name": "createTime",
          "type": "uint256"
        }
      ],
      "payable": false,
      "stateMutability": "view",
      "type": "function"
    },
    {
      "constant": true,
      "inputs": [],
      "name": "unTaxedpool",
      "outputs": [
        {
          "name": "",
          "type": "uint256"
        }
      ],
      "payable": false,
      "stateMutability": "view",
      "type": "function"
    },
    {
      "constant": true,
      "inputs": [],
      "name": "decimals",
      "outputs": [
        {
          "name": "",
          "type": "uint8"
        }
      ],
      "payable": false,
      "stateMutability": "view",
      "type": "function"
    },
    {
      "constant": true,
      "inputs": [],
      "name": "totalTokens",
      "outputs": [
        {
          "name": "",
          "type": "uint256"
        }
      ],
      "payable": false,
      "stateMutability": "view",
      "type": "function"
    },
    {
      "constant": true,
      "inputs": [],
      "name": "tokenPrice",
      "outputs": [
        {
          "name": "",
          "type": "uint256"
        }
      ],
      "payable": false,
      "stateMutability": "view",
      "type": "function"
    },
    {
      "constant": true,
      "inputs": [],
      "name": "lastCleanTime",
      "outputs": [
        {
          "name": "",
          "type": "uint256"
        }
      ],
      "payable": false,
      "stateMutability": "view",
      "type": "function"
    },
    {
      "constant": true,
      "inputs": [
        {
          "name": "",
          "type": "uint256"
        }
      ],
      "name": "UserInfo",
      "outputs": [
        {
          "name": "userId",
          "type": "uint256"
        },
        {
          "name": "userAddress",
          "type": "address"
        },
        {
          "name": "tokensBought",
          "type": "uint256"
        },
        {
          "name": "tokensBalance",
          "type": "uint256"
        },
        {
          "name": "createTime",
          "type": "uint256"
        }
      ],
      "payable": false,
      "stateMutability": "view",
      "type": "function"
    },
    {
      "constant": true,
      "inputs": [
        {
          "name": "",
          "type": "uint256"
        }
      ],
      "name": "ProblemDetail",
      "outputs": [
        {
          "name": "problemId",
          "type": "uint256"
        },
        {
          "name": "createTime",
          "type": "uint256"
        },
        {
          "name": "limit",
          "type": "uint256"
        },
        {
          "name": "finished",
          "type": "bool"
        },
        {
          "name": "inqurier",
          "type": "uint256"
        },
        {
          "name": "answer",
          "type": "uint256"
        },
        {
          "name": "offer",
          "type": "uint256"
        },
        {
          "name": "helpNum",
          "type": "uint256"
        },
        {
          "name": "model",
          "type": "uint256"
        }
      ],
      "payable": false,
      "stateMutability": "view",
      "type": "function"
    },
    {
      "constant": true,
      "inputs": [],
      "name": "platformAddress",
      "outputs": [
        {
          "name": "",
          "type": "address"
        }
      ],
      "payable": false,
      "stateMutability": "view",
      "type": "function"
    },
    {
      "constant": true,
      "inputs": [],
      "name": "balanceTokens",
      "outputs": [
        {
          "name": "",
          "type": "uint256"
        }
      ],
      "payable": false,
      "stateMutability": "view",
      "type": "function"
    },
    {
      "inputs": [
        {
          "name": "tokens",
          "type": "uint256"
        },
        {
          "name": "pricePerToken",
          "type": "uint256"
        },
        {
          "name": "platform",
          "type": "address"
        }
      ],
      "payable": true,
      "stateMutability": "payable",
      "type": "constructor"
    },
    {
      "constant": true,
      "inputs": [
        {
          "name": "userId",
          "type": "uint256"
        }
      ],
      "name": "AddressOf",
      "outputs": [
        {
          "name": "",
          "type": "address"
        }
      ],
      "payable": false,
      "stateMutability": "view",
      "type": "function"
    },
    {
      "constant": true,
      "inputs": [
        {
          "name": "userAddress",
          "type": "address"
        }
      ],
      "name": "IdOf",
      "outputs": [
        {
          "name": "",
          "type": "uint256"
        }
      ],
      "payable": false,
      "stateMutability": "view",
      "type": "function"
    },
    {
      "constant": true,
      "inputs": [
        {
          "name": "tokenOwner",
          "type": "uint256"
        }
      ],
      "name": "balanceOf",
      "outputs": [
        {
          "name": "",
          "type": "uint256"
        }
      ],
      "payable": false,
      "stateMutability": "view",
      "type": "function"
    },
    {
      "constant": true,
      "inputs": [
        {
          "name": "addr",
          "type": "address"
        }
      ],
      "name": "balance",
      "outputs": [
        {
          "name": "",
          "type": "uint256"
        }
      ],
      "payable": false,
      "stateMutability": "view",
      "type": "function"
    },
    {
      "constant": false,
      "inputs": [
        {
          "name": "userId",
          "type": "uint256"
        }
      ],
      "name": "sendFree",
      "outputs": [
        {
          "name": "",
          "type": "uint256"
        }
      ],
      "payable": true,
      "stateMutability": "payable",
      "type": "function"
    },
    {
      "constant": false,
      "inputs": [],
      "name": "reBack",
      "outputs": [
        {
          "name": "",
          "type": "bool"
        }
      ],
      "payable": false,
      "stateMutability": "nonpayable",
      "type": "function"
    },
    {
      "constant": false,
      "inputs": [
        {
          "name": "userId",
          "type": "uint256"
        },
        {
          "name": "userAddress",
          "type": "address"
        }
      ],
      "name": "bindAddress",
      "outputs": [
        {
          "name": "",
          "type": "bool"
        }
      ],
      "payable": true,
      "stateMutability": "payable",
      "type": "function"
    },
    {
      "constant": false,
      "inputs": [
        {
          "name": "userId",
          "type": "uint256"
        },
        {
          "name": "new_userAddress",
          "type": "address"
        }
      ],
      "name": "changeAddress",
      "outputs": [
        {
          "name": "",
          "type": "bool"
        }
      ],
      "payable": true,
      "stateMutability": "payable",
      "type": "function"
    },
    {
      "constant": false,
      "inputs": [
        {
          "name": "userId",
          "type": "uint256"
        }
      ],
      "name": "buy",
      "outputs": [
        {
          "name": "",
          "type": "uint256"
        }
      ],
      "payable": true,
      "stateMutability": "payable",
      "type": "function"
    },
    {
      "constant": false,
      "inputs": [
        {
          "name": "userId",
          "type": "uint256"
        },
        {
          "name": "coins",
          "type": "uint256"
        }
      ],
      "name": "sell",
      "outputs": [
        {
          "name": "",
          "type": "uint256"
        }
      ],
      "payable": true,
      "stateMutability": "payable",
      "type": "function"
    },
    {
      "constant": false,
      "inputs": [
        {
          "name": "userId",
          "type": "uint256"
        },
        {
          "name": "coins",
          "type": "uint256"
        },
        {
          "name": "problemId",
          "type": "uint256"
        },
        {
          "name": "limit",
          "type": "uint256"
        },
        {
          "name": "model",
          "type": "uint256"
        }
      ],
      "name": "publish",
      "outputs": [
        {
          "name": "",
          "type": "uint256"
        }
      ],
      "payable": true,
      "stateMutability": "payable",
      "type": "function"
    },
    {
      "constant": false,
      "inputs": [
        {
          "name": "userId",
          "type": "uint256"
        },
        {
          "name": "lastId",
          "type": "uint256"
        },
        {
          "name": "problemId",
          "type": "uint256"
        },
        {
          "name": "helpType",
          "type": "uint256"
        }
      ],
      "name": "answerOrTransfer",
      "outputs": [
        {
          "name": "",
          "type": "bool"
        }
      ],
      "payable": true,
      "stateMutability": "payable",
      "type": "function"
    },
    {
      "constant": false,
      "inputs": [
        {
          "name": "userId",
          "type": "uint256"
        },
        {
          "name": "problemId",
          "type": "uint256"
        },
        {
          "name": "ansId",
          "type": "uint256"
        }
      ],
      "name": "chooseAnwser",
      "outputs": [],
      "payable": true,
      "stateMutability": "payable",
      "type": "function"
    },
    {
      "constant": false,
      "inputs": [
        {
          "name": "userId",
          "type": "uint256"
        },
        {
          "name": "problemId",
          "type": "uint256"
        }
      ],
      "name": "NoAnswer",
      "outputs": [],
      "payable": false,
      "stateMutability": "nonpayable",
      "type": "function"
    },
    {
      "constant": false,
      "inputs": [],
      "name": "getTax",
      "outputs": [
        {
          "name": "",
          "type": "bool"
        }
      ],
      "payable": true,
      "stateMutability": "payable",
      "type": "function"
    },
    {
      "constant": true,
      "inputs": [],
      "name": "tokensSold",
      "outputs": [
        {
          "name": "",
          "type": "uint256"
        }
      ],
      "payable": false,
      "stateMutability": "view",
      "type": "function"
    },
    {
      "constant": true,
      "inputs": [
        {
          "name": "userId",
          "type": "uint256"
        }
      ],
      "name": "UserDetails",
      "outputs": [
        {
          "name": "",
          "type": "uint256"
        },
        {
          "name": "",
          "type": "uint256"
        }
      ],
      "payable": false,
      "stateMutability": "view",
      "type": "function"
    }
  ],
  "bytecode": "0x6080604052600a600460006101000a81548160ff021916908360ff1602179055506000600b55608060405190810160405280600860ff168152602001600760ff168152602001600660ff168152602001600560ff16815250600c906004620000699291906200013d565b5060405160608062002558833981018060405281019080805190602001909291908051906020019092919080519060200190929190505050600460009054906101000a900460ff1660ff16600a0a8302600381905550600460009054906101000a900460ff1660ff16600a0a83026005819055508160068190555080600760006101000a81548173ffffffffffffffffffffffffffffffffffffffff021916908373ffffffffffffffffffffffffffffffffffffffff160217905550600060088190555042600981905550505050620001bc565b82805482825590600052602060002090810192821562000181579160200282015b8281111562000180578251829060ff169055916020019190600101906200015e565b5b50905062000190919062000194565b5090565b620001b991905b80821115620001b55760008160009055506001016200019b565b5090565b90565b61238c80620001cc6000396000f30060806040526004361061015f576000357c0100000000000000000000000000000000000000000000000000000000900463ffffffff1680630d40fb091461016457806318a32f1a14610203578063193c688a146102595780631d5ad18b14610284578063243a4f2f146102dc578063313ce5671461031357806331bb4754146103445780633912eff214610378578063518ab2a8146103c057806354b762a6146103eb578063794fe1bd1461040d5780637e1c0c091461043c5780637f546879146104675780637ff9b596146104c35780638c4e6990146104ee578063936afb351461055b5780639cc7f70814610586578063ca73cc09146105c7578063d1305a3414610650578063d79875eb146106cd578063d96a094a1461070b578063dbe55e561461073f578063de067ab514610796578063e2e9fc37146107ed578063e3d670d714610821578063e4494a0f14610878578063e570ec65146108a3575b600080fd5b34801561017057600080fd5b506101a5600480360381019080803573ffffffffffffffffffffffffffffffffffffffff1690602001909291905050506108fb565b604051808681526020018573ffffffffffffffffffffffffffffffffffffffff1673ffffffffffffffffffffffffffffffffffffffff1681526020018481526020018381526020018281526020019550505050505060405180910390f35b61023f60048036038101908080359060200190929190803590602001909291908035906020019092919080359060200190929190505050610951565b604051808215151515815260200191505060405180910390f35b34801561026557600080fd5b5061026e610b3e565b6040518082815260200191505060405180910390f35b6102c260048036038101908080359060200190929190803573ffffffffffffffffffffffffffffffffffffffff169060200190929190505050610b44565b604051808215151515815260200191505060405180910390f35b3480156102e857600080fd5b506103116004803603810190808035906020019092919080359060200190929190505050610d87565b005b34801561031f57600080fd5b506103286111ee565b604051808260ff1660ff16815260200191505060405180910390f35b61036260048036038101908080359060200190929190505050611201565b6040518082815260200191505060405180910390f35b34801561038457600080fd5b506103a360048036038101908080359060200190929190505050611333565b604051808381526020018281526020019250505060405180910390f35b3480156103cc57600080fd5b506103d561136b565b6040518082815260200191505060405180910390f35b6103f3611379565b604051808215151515815260200191505060405180910390f35b34801561041957600080fd5b50610422611457565b604051808215151515815260200191505060405180910390f35b34801561044857600080fd5b506104516115eb565b6040518082815260200191505060405180910390f35b6104ad60048036038101908080359060200190929190803590602001909291908035906020019092919080359060200190929190803590602001909291905050506115f1565b6040518082815260200191505060405180910390f35b3480156104cf57600080fd5b506104d86119ac565b6040518082815260200191505060405180910390f35b3480156104fa57600080fd5b50610519600480360381019080803590602001909291905050506119b2565b604051808273ffffffffffffffffffffffffffffffffffffffff1673ffffffffffffffffffffffffffffffffffffffff16815260200191505060405180910390f35b34801561056757600080fd5b506105706119f1565b6040518082815260200191505060405180910390f35b34801561059257600080fd5b506105b1600480360381019080803590602001909291905050506119f7565b6040518082815260200191505060405180910390f35b3480156105d357600080fd5b506105f260048036038101908080359060200190929190505050611a16565b604051808681526020018573ffffffffffffffffffffffffffffffffffffffff1673ffffffffffffffffffffffffffffffffffffffff1681526020018481526020018381526020018281526020019550505050505060405180910390f35b34801561065c57600080fd5b5061067b60048036038101908080359060200190929190505050611a6c565b604051808a815260200189815260200188815260200187151515158152602001868152602001858152602001848152602001838152602001828152602001995050505050505050505060405180910390f35b6106f56004803603810190808035906020019092919080359060200190929190505050611ac7565b6040518082815260200191505060405180910390f35b61072960048036038101908080359060200190929190505050611bb5565b6040518082815260200191505060405180910390f35b34801561074b57600080fd5b50610754611d42565b604051808273ffffffffffffffffffffffffffffffffffffffff1673ffffffffffffffffffffffffffffffffffffffff16815260200191505060405180910390f35b3480156107a257600080fd5b506107d7600480360381019080803573ffffffffffffffffffffffffffffffffffffffff169060200190929190505050611d68565b6040518082815260200191505060405180910390f35b61081f600480360381019080803590602001909291908035906020019092919080359060200190929190505050611db4565b005b34801561082d57600080fd5b50610862600480360381019080803573ffffffffffffffffffffffffffffffffffffffff16906020019092919050505061208d565b6040518082815260200191505060405180910390f35b34801561088457600080fd5b5061088d6120d9565b6040518082815260200191505060405180910390f35b6108e160048036038101908080359060200190929190803573ffffffffffffffffffffffffffffffffffffffff1690602001909291905050506120df565b604051808215151515815260200191505060405180910390f35b60026020528060005260406000206000915090508060000154908060010160009054906101000a900473ffffffffffffffffffffffffffffffffffffffff16908060020154908060030154908060040154905085565b600083851415151561096257600080fd5b600015156001600085815260200190815260200160002060030160009054906101000a900460ff16151514151561099857600080fd5b846001600085815260200190815260200160002060040154141515156109bd57600080fd5b62015180600160008581526020019081526020016000206002015402600160008581526020019081526020016000206001015401421015156109fe57600080fd5b6001806000858152602001908152602001600020600701600082825401925050819055506000821415610a9b578360008087815260200190815260200160002060070160008581526020019081526020016000208190555060016000848152602001908152602001600020600901859080600181540180825580915050906001820390600052602060002001600090919290919091505550610b32565b8360008087815260200190815260200160002060070160008581526020019081526020016000208190555060016000848152602001908152602001600020600a01859080600181540180825580915050906001820390600052602060002001600090919290919091505550826000808781526020019081526020016000206006016000858152602001908152602001600020819055505b60019050949350505050565b60085481565b6000610b4f836119b2565b73ffffffffffffffffffffffffffffffffffffffff163373ffffffffffffffffffffffffffffffffffffffff16141515610b8857600080fd5b6002600080600086815260200190815260200160002060010160009054906101000a900473ffffffffffffffffffffffffffffffffffffffff1673ffffffffffffffffffffffffffffffffffffffff1673ffffffffffffffffffffffffffffffffffffffff1681526020019081526020016000206000808201600090556001820160006101000a81549073ffffffffffffffffffffffffffffffffffffffff021916905560028201600090556003820160009055600482016000905550508160008085815260200190815260200160002060010160006101000a81548173ffffffffffffffffffffffffffffffffffffffff021916908373ffffffffffffffffffffffffffffffffffffffff160217905550600080848152602001908152602001600020600260008473ffffffffffffffffffffffffffffffffffffffff1673ffffffffffffffffffffffffffffffffffffffff168152602001908152602001600020600082015481600001556001820160009054906101000a900473ffffffffffffffffffffffffffffffffffffffff168160010160006101000a81548173ffffffffffffffffffffffffffffffffffffffff021916908373ffffffffffffffffffffffffffffffffffffffff1602179055506002820154816002015560038201548160030155600482015481600401559050506001905092915050565b60008060008060008060008060008062015180600160008d81526020019081526020016000206002015402600160008d8152602001908152602001600020600101540142111515610dd757600080fd5b600460009054906101000a900460ff1660ff16600a0a600160008d815260200190815260200160002060060154029950600a60088b02811515610e1657fe5b049850886000808e815260200190815260200160002060030160008282540192505081905550886000808e815260200190815260200160002060020160008282540192505081905550888a039750600160008c8152602001908152602001600020600a01805490509650600093505b600160008c8152602001908152602001600020600a0180549050841015610f7557600160008c8152602001908152602001600020600a0184815481101515610ec957fe5b9060005260206000200154955060008087815260200190815260200160002060070160008c8152602001908152602001600020549450600069ffffffffffffffffffff16600d60008d81526020019081526020016000206000878152602001908152602001600020541415610f685760018701965084600d60008d81526020019081526020016000206000878152602001908152602001600020819055505b8380600101945050610e85565b8688811515610f8057fe5b049250600093505b600160008c8152602001908152602001600020600a018054905084101561103757600160008c8152602001908152602001600020600a0184815481101515610fcc57fe5b9060005260206000200154955060008087815260200190815260200160002060070160008c8152602001908152602001600020549450600d60008c81526020019081526020016000206000868152602001908152602001600020600090558380600101945050610f88565b600090505b600160008c8152602001908152602001600020600a01805490508110156111b257600160008c8152602001908152602001600020600a018181548110151561108057fe5b906000526020600020015495508260008088815260200190815260200160002060030160008282540192505081905550826000808881526020019081526020016000206002016000828254019250508190555060008087815260200190815260200160002060070160008c8152602001908152602001600020549150600069ffffffffffffffffffff16600d60008d815260200190815260200160002060008481526020019081526020016000205414156111a55781600d60008d8152602001908152602001600020600084815260200190815260200160002081905550826000808481526020019081526020016000206003016000828254019250508190555082600080848152602001908152602001600020600201600082825401925050819055505b808060010191505061103c565b60018060008d815260200190815260200160002060030160006101000a81548160ff021916908315150217905550505050505050505050505050565b600460009054906101000a900460ff1681565b60008069ffffffffffffffffffff166000808481526020019081526020016000206000015414151561123257600080fd5b8160008084815260200190815260200160002060000181905550600460009054906101000a900460ff1660ff16600a0a60320260008084815260200190815260200160002060020160008282540192505081905550600460009054906101000a900460ff1660ff16600a0a60320260008084815260200190815260200160002060030160008282540192505081905550600460009054906101000a900460ff1660ff16600a0a6032026005600082825403925050819055506001600b6000828254019250508190555081600a600084815260200190815260200160002081905550600460009054906101000a900460ff1660ff16600a0a6032029050919050565b600080600080848152602001908152602001600020600201546000808581526020019081526020016000206003015491509150915091565b600060055460035403905090565b600068056bc75e2d631000006008541015151561139557600080fd5b6000600760009054906101000a900473ffffffffffffffffffffffffffffffffffffffff1673ffffffffffffffffffffffffffffffffffffffff16141515156113dd57600080fd5b600760009054906101000a900473ffffffffffffffffffffffffffffffffffffffff1673ffffffffffffffffffffffffffffffffffffffff166108fc6008549081150290604051600060405180830381858888f19350505050158015611447573d6000803e3d6000fd5b5060006008819055506001905090565b600080600080600b549250600091505b828210156115e157600080600a60008581526020019081526020016000205481526020019081526020016000206004015462093a8001421015156115d457600080600a60008581526020019081526020016000205481526020019081526020016000206002015490506000806000600a6000868152602001908152602001600020548152602001908152602001600020600201819055506000806000600a60008681526020019081526020016000205481526020019081526020016000206003018190555080600560008282540192505081905550600080600a60008581526020019081526020016000205481526020019081526020016000206000808201600090556001820160006101000a81549073ffffffffffffffffffffffffffffffffffffffff02191690556002820160009055600382016000905560048201600090555050600a6000838152602001908152602001600020600090556001600b600082825403925050819055505b8180600101925050611467565b6001935050505090565b60035481565b60008060006115ff886119b2565b73ffffffffffffffffffffffffffffffffffffffff163373ffffffffffffffffffffffffffffffffffffffff1614151561163857600080fd5b60065487029150600560698381151561164d57fe5b040290506000600760009054906101000a900473ffffffffffffffffffffffffffffffffffffffff1673ffffffffffffffffffffffffffffffffffffffff161415151561169957600080fd5b806008600082825401925050819055508082039150600654828115156116bb57fe5b049650600460009054906101000a900460ff1660ff16600a0a87026000808a815260200190815260200160002060020160008282540392505081905550600460009054906101000a900460ff1660ff16600a0a87026000808a815260200190815260200160002060030160008282540392505081905550856000808a815260200190815260200160002060050160008881526020019081526020016000206000018190555060008060008a8152602001908152602001600020600501600088815260200190815260200160002060030160006101000a81548160ff021916908315150217905550876000808a8152602001908152602001600020600501600088815260200190815260200160002060040181905550866000808a8152602001908152602001600020600501600088815260200190815260200160002060060181905550846000808a8152602001908152602001600020600501600088815260200190815260200160002060020181905550426000808a815260200190815260200160002060050160008881526020019081526020016000206001018190555060008060008a8152602001908152602001600020600501600088815260200190815260200160002060070181905550836000808a81526020019081526020016000206005016000888152602001908152602001600020600801819055506000808981526020019081526020016000206005016000878152602001908152602001600020600160008881526020019081526020016000206000820154816000015560018201548160010155600282015481600201556003820160009054906101000a900460ff168160030160006101000a81548160ff021916908315150217905550600482015481600401556005820154816005015560068201548160060155600782015481600701556008820154816008015560098201816009019080546119839291906122e9565b50600a820181600a0190805461199a9291906122e9565b50905050869250505095945050505050565b60065481565b600080600083815260200190815260200160002060010160009054906101000a900473ffffffffffffffffffffffffffffffffffffffff169050919050565b60095481565b6000806000838152602001908152602001600020600301549050919050565b60006020528060005260406000206000915090508060000154908060010160009054906101000a900473ffffffffffffffffffffffffffffffffffffffff16908060020154908060030154908060040154905085565b60016020528060005260406000206000915090508060000154908060010154908060020154908060030160009054906101000a900460ff16908060040154908060050154908060060154908060070154908060080154905089565b6000806000600654840291506005606983811515611ae157fe5b04029050806008600082825401925050819055508082039150600460009054906101000a900460ff1660ff16600a0a840260008087815260200190815260200160002060030160008282540392505081905550600460009054906101000a900460ff1660ff16600a0a8402600560008282540192505081905550611b64856119b2565b73ffffffffffffffffffffffffffffffffffffffff166108fc839081150290604051600060405180830381858888f19350505050158015611ba9573d6000803e3d6000fd5b50819250505092915050565b60008060065434111515611bc857600080fd5b600460009054906101000a900460ff1660ff16600a0a60065434811515611beb57fe5b040290506005548111151515611c0057600080fd5b80600080858152602001908152602001600020600201600082825401925050819055508060008085815260200190815260200160002060030160008282540192505081905550600080848152602001908152602001600020600260003373ffffffffffffffffffffffffffffffffffffffff1673ffffffffffffffffffffffffffffffffffffffff168152602001908152602001600020600082015481600001556001820160009054906101000a900473ffffffffffffffffffffffffffffffffffffffff168160010160006101000a81548173ffffffffffffffffffffffffffffffffffffffff021916908373ffffffffffffffffffffffffffffffffffffffff1602179055506002820154816002015560038201548160030155600482015481600401559050508060056000828254039250508190555080915050919050565b600760009054906101000a900473ffffffffffffffffffffffffffffffffffffffff1681565b6000600260008373ffffffffffffffffffffffffffffffffffffffff1673ffffffffffffffffffffffffffffffffffffffff168152602001908152602001600020600001549050919050565b6000806000806000806000611dc88a6119b2565b73ffffffffffffffffffffffffffffffffffffffff163373ffffffffffffffffffffffffffffffffffffffff16141515611e0157600080fd5b89600160008b815260200190815260200160002060040154141515611e2557600080fd5b60018060008b815260200190815260200160002060030160006101000a81548160ff02191690831515021790555087600160008b815260200190815260200160002060050181905550600160008a8152602001908152602001600020600801549650600460009054906101000a900460ff1660ff16600a0a600160008b815260200190815260200160002060060154029550600a600c88815481101515611ec857fe5b90600052602060002001548702811515611ede57fe5b049450848603935087925060009150600090505b8960008085815260200190815260200160002060070160008b815260200190815260200160002054141515611f5d5760008084815260200190815260200160002060070160008a81526020019081526020016000205492506001820191506001820281019050611ef2565b846000808a815260200190815260200160002060020160008282540192505081905550846000808a8152602001908152602001600020600301600082825401925050819055506000821115612070578084811515611fb757fe5b0493508792505b8960008085815260200190815260200160002060070160008b81526020019081526020016000205414151561206b5760008084815260200190815260200160002060070160008a81526020019081526020016000205492508184026000808581526020019081526020016000206002016000828254019250508190555081840260008085815260200190815260200160002060030160008282540192505081905550600182039150611fbe565b612081565b836005600082825401925050819055505b50505050505050505050565b6000600260008373ffffffffffffffffffffffffffffffffffffffff1673ffffffffffffffffffffffffffffffffffffffff168152602001908152602001600020600301549050919050565b60055481565b60008060008360008087815260200190815260200160002060010160006101000a81548173ffffffffffffffffffffffffffffffffffffffff021916908373ffffffffffffffffffffffffffffffffffffffff160217905550600080868152602001908152602001600020600260008673ffffffffffffffffffffffffffffffffffffffff1673ffffffffffffffffffffffffffffffffffffffff168152602001908152602001600020600082015481600001556001820160009054906101000a900473ffffffffffffffffffffffffffffffffffffffff168160010160006101000a81548173ffffffffffffffffffffffffffffffffffffffff021916908373ffffffffffffffffffffffffffffffffffffffff160217905550600282015481600201556003820154816003015560048201548160040155905050612224856119b2565b73ffffffffffffffffffffffffffffffffffffffff166108fc662386f26fc100009081150290604051600060405180830381858888f19350505050158015612270573d6000803e3d6000fd5b50600b549150600090505b818110156122dc5784600a60008381526020019081526020016000205414156122cf57600a6000828152602001908152602001600020600090556001600b60008282540392505081905550600192506122e1565b808060010191505061227b565b600092505b505092915050565b82805482825590600052602060002090810192821561232a5760005260206000209182015b8281111561232957825482559160010191906001019061230e565b5b509050612337919061233b565b5090565b61235d91905b80821115612359576000816000905550600101612341565b5090565b905600a165627a7a7230582047c51e04d2ca180480dd63a049e2c95eeccfcd50dfc5ed702817d9f5eda952650029",
  "source": "pragma solidity ^0.4.18;\r\n\r\ncontract OurCoins {\r\n\t\r\n\t// \r\n\t// wei,wei\r\n\tstruct User {\r\n\t\tuint256\t\tuserId;\t\t\t//Id\r\n\t\taddress \tuserAddress;\t//\r\n\t\tuint\t\ttokensBought;\t//\r\n\t\tuint\t\ttokensBalance;  //\r\n\t\tuint\t\tcreateTime;\t\t//\r\n\t\tmapping (uint256 => Problem) ownQuestionList; //\r\n\t\tmapping (uint256 => uint256) answerQuestionList; //()\t\t\r\n\t\t// \r\n\t\t// , \r\n\t\t// \r\n\t\tmapping (uint256 => uint256) questionRoutes; \r\n\t}\r\n\t// \r\n\tstruct Problem {\r\n\t\tuint256 problemId;\t// ID\r\n\t\tuint\tcreateTime; // \r\n\t\tuint\tlimit;\t\t// \r\n\t\tbool\tfinished;\t// \r\n\t\tuint \tinqurier;\t// \r\n\t\tuint \tanswer;\t\t// \r\n\t\tuint    offer;\t\t// \r\n\t\tuint    helpNum;    // \r\n\t\tuint    model;\t\t// \r\n\t\tuint[]  transferList;\t // id\r\n\t\tuint[]  answerList; \t // id\r\n\t}\r\n\t// id\r\n\tmapping (uint => User) public UserInfo;\r\n\t// Id\r\n\tmapping (uint => Problem) public ProblemDetail;\r\n\t// \r\n\tmapping (address => User) public userAddressInfo;\r\n\r\n\tuint public totalTokens;   \t\t\t//\r\n\tuint8 public decimals = 10;   \t\t//\t\r\n  \tuint public balanceTokens; \t\t\t//token\r\n  \tuint public tokenPrice;\t   \t\t\t//Token \r\n\taddress public platformAddress; \t// \r\n\tuint public unTaxedpool;  \t\t\t// \r\n\tuint public lastCleanTime;\t\t\t// unBindUsers\r\n\tmapping  (uint => uint) unBindUsers; //  =>id\r\n\tuint unBindUserNumber = 0;\r\n\tuint[] compartmentalized = [8, 7, 6, 5];  // \r\n\tuint80 constant None = uint80(0); \t\t  // Null\r\n\tmapping (uint => mapping (uint => uint)) transfer;  // \r\n\t\r\n\r\n\t// tokens token\r\n\t// pricePerToken , wei\r\n\tconstructor(uint tokens, uint pricePerToken, address platform) payable public {\r\n\t\ttotalTokens = tokens * 10 ** uint256(decimals);\r\n    \tbalanceTokens = tokens * 10 ** uint256(decimals);\r\n    \ttokenPrice = pricePerToken;\r\n\t\tplatformAddress = platform;\r\n\t\tunTaxedpool = 0;\r\n\t\tlastCleanTime = now;\r\n\t}\r\n\r\n\r\n    // Id\r\n\tfunction AddressOf(uint userId) public view returns (address) {\r\n\t\treturn UserInfo[userId].userAddress;\r\n\t}\r\n\t\r\n\t// Id\r\n\tfunction IdOf(address userAddress) public view returns (uint) {\r\n\t    return userAddressInfo[userAddress].userId;\r\n\t}\r\n\r\n\t// Id\r\n\tfunction balanceOf(uint tokenOwner) public view returns (uint) {\r\n\t\treturn UserInfo[tokenOwner].tokensBalance;\r\n\t}\r\n\t\r\n\t// \r\n\tfunction balance(address addr) public view returns (uint) {\r\n\t    return userAddressInfo[addr].tokensBalance;\r\n\t}\r\n\r\n\t// \r\n\tfunction sendFree(uint userId) payable public returns (uint) {\r\n\t\trequire(UserInfo[userId].userId==None);\r\n\t\tUserInfo[userId].userId = userId;\r\n\t\tUserInfo[userId].tokensBought += 50 * 10 ** uint256(decimals);\r\n\t\tUserInfo[userId].tokensBalance += 50 * 10 ** uint256(decimals);\r\n\t\tbalanceTokens -= 50 * 10 ** uint256(decimals);\r\n\t\tunBindUserNumber += 1;\r\n\t\tunBindUsers[userId] = userId;\r\n\t\treturn 50 * 10 ** uint256(decimals);\r\n\t}\r\n\r\n\t// token\r\n\tfunction reBack() public returns (bool) {\r\n\t\tuint tempNum = unBindUserNumber;\r\n\t\tfor (uint i=0; i < tempNum; i++) {\r\n\t\t\tif (now >= 7 * 1 days + UserInfo[unBindUsers[i]].createTime) {\r\n\t\t\t\tuint tokens = UserInfo[unBindUsers[i]].tokensBought;\r\n\t\t\t\tUserInfo[unBindUsers[i]].tokensBought = 0;\r\n\t\t\t\tUserInfo[unBindUsers[i]].tokensBalance = 0;\r\n\t\t\t\tbalanceTokens += tokens;\r\n\t\t\t\tdelete UserInfo[unBindUsers[i]]; \t\t\t\t\r\n\t\t\t\tdelete unBindUsers[i];\r\n\t\t\t\tunBindUserNumber -= 1;\r\n\t\t\t}\r\n\t\t}\r\n\t\treturn true;\r\n\t}\r\n\t// \r\n\tfunction bindAddress(uint userId, address userAddress) public payable returns (bool) {\r\n    //      require(msg.sender == AddressOf(userId)); \r\n\t\t\tUserInfo[userId].userAddress = userAddress;\r\n\t\t\tuserAddressInfo[userAddress] = UserInfo[userId];\r\n\t\t\t// , \r\n\t\t\tAddressOf(userId).transfer(10000000000000000);\r\n\t\t\tuint tempNum = unBindUserNumber;\r\n\t\t\tfor (uint i=0; i < tempNum; i++) {\r\n\t\t\t\tif (unBindUsers[i] == userId) {\r\n\t\t\t\t\tdelete unBindUsers[i];\r\n\t\t\t\t\tunBindUserNumber -= 1;\r\n\t\t\t\t\treturn true;\r\n\t\t\t\t}\r\n\t\t\t}\r\n\t\t\treturn false;\r\n\t}\r\n\r\n\t// \r\n\tfunction changeAddress(uint userId, address new_userAddress) public payable returns (bool) {\r\n\t    require(msg.sender == AddressOf(userId));   \r\n\t   \tdelete userAddressInfo[UserInfo[userId].userAddress];\r\n\t\tUserInfo[userId].userAddress = new_userAddress;\r\n\t\tuserAddressInfo[new_userAddress] = UserInfo[userId];\r\n\t\treturn true;\r\n\t}\r\n\r\n\t// token\r\n\t// userId Id\r\n   function buy(uint userId) payable public returns (uint) { \r\n     //msg.valuepayable\r\n      require(msg.value > tokenPrice);\r\n   //   \r\n   //   require(msg.sender == AddressOf(userId) || AddressOf(userId) == None);\r\n      uint tokensToBuy = msg.value / tokenPrice * 10 ** uint256(decimals);  //   \r\n      require(tokensToBuy <= balanceTokens);       \t\t\t\t\t\t\t//  \r\n    //  userAddressInfo[msg.sender].userAddress = msg.sender;   \t\t\t\t//token\r\n    //  userAddressInfo[msg.sender].userId = userId;    \t\t\t\t\t\t//Id\t  \r\n      UserInfo[userId].tokensBought += tokensToBuy;  \t\t\t//\r\n      UserInfo[userId].tokensBalance += tokensToBuy; \t\t\t//\r\n      userAddressInfo[msg.sender] =  UserInfo[userId];\t\t\t\r\n      balanceTokens -= tokensToBuy;                \t\t\t\t\t\t\t//  \r\n      return tokensToBuy;                          \t\t\t\t\t\t\t//\r\n   }\r\n   // Token\r\n   // userId \r\n   // coins\t\t  \r\n   function sell(uint userId, uint coins) payable public returns (uint) {\r\n      //msg.valuepayable\r\n\t  //wei\r\n\t  // require(msg.sender == AddressOf(userId)); \r\n\t  uint WeiToSell \t\t= coins * tokenPrice;\r\n\t // require(coins * 10 ** uint256(decimals) <= UserInfo[userId].tokensBalance); \t\t// \r\n\t  uint tax \t\t \t\t= WeiToSell / 105 * 5;  \t\t\t                        // \r\n\t  unTaxedpool\t\t   \t+= tax;\r\n\t  WeiToSell\t\t \t\t= WeiToSell - tax;\t\t \t\t\t\t\t\t\t        // \r\n\t  UserInfo[userId].tokensBalance -= coins * 10 ** uint256(decimals);  \t\t\t\t// \r\n\t  balanceTokens \t\t+= coins * 10 ** uint256(decimals);       \t\t\t\t    // token  \t\t\r\n\t  AddressOf(userId).transfer(WeiToSell);\t\t\t\t\t// \r\n\t  return WeiToSell;\r\n   }\r\n   // \r\n   // userId id\r\n   // coins \r\n   // problemId Id\r\n   // model\t\t\r\n\tfunction publish(uint userId, uint coins, uint256 problemId, uint limit, uint model) payable public returns (uint) {\r\n\t    require(msg.sender == AddressOf(userId)); \r\n\t\t// tokenwei\r\n\t\tuint coinsInWei = coins * tokenPrice;\r\n\t\t// 5%\r\n\t\tuint tax\t\t= coinsInWei / 105 * 5;\r\n\t\trequire(platformAddress != 0x0);\r\n \t\tunTaxedpool\t\t+= tax;\r\n\t\tcoinsInWei \t\t= coinsInWei - tax;\r\n\t\tcoins = coinsInWei / tokenPrice;\r\n\r\n\t\t// \r\n\t\tUserInfo[userId].tokensBought -= coins*10**uint256(decimals);\r\n\t\tUserInfo[userId].tokensBalance -= coins*10**uint256(decimals);\r\n\r\n\t\t// \r\n        UserInfo[userId].ownQuestionList[problemId].problemId = problemId;\r\n        UserInfo[userId].ownQuestionList[problemId].finished = false;\r\n        UserInfo[userId].ownQuestionList[problemId].inqurier = userId;\r\n        UserInfo[userId].ownQuestionList[problemId].offer = coins;\r\n        UserInfo[userId].ownQuestionList[problemId].limit = limit;\t\t\r\n        UserInfo[userId].ownQuestionList[problemId].createTime = block.timestamp;\r\n        UserInfo[userId].ownQuestionList[problemId].helpNum = 0;\r\n        UserInfo[userId].ownQuestionList[problemId].model = model;\t\t\r\n        ProblemDetail[problemId] = UserInfo[userId].ownQuestionList[problemId];\r\n\t\treturn  coins;\r\n\t}\r\n\t// \r\n\t// helpType  0 1\r\n\tfunction answerOrTransfer(uint userId, uint lastId, uint256 problemId, uint helpType) public payable returns (bool) {\r\n\t//  require(msg.sender == AddressOf(userId)); \r\n\t    require(userId != lastId);\r\n\t\trequire(ProblemDetail[problemId].finished==false);\r\n\t\trequire(ProblemDetail[problemId].inqurier!=userId);\r\n\t\trequire(now < ProblemDetail[problemId].createTime + ProblemDetail[problemId].limit * 1 days);\r\n\t\tProblemDetail[problemId].helpNum += 1;\t\t\r\n\t\tif(helpType == 0) {\r\n\t\t\t// \r\n\t\t//\trequire(UserInfo[userId].questionRoutes[problemId] == None);\r\n\t\t\tUserInfo[userId].questionRoutes[problemId] = lastId;\r\n\t\t\tProblemDetail[problemId].transferList.push(userId);\r\n\t\t} else {\r\n\t\t\t// \r\n\t\t//\trequire(UserInfo[userId].answerQuestionList[problemId] == None);\r\n\t\t    UserInfo[userId].questionRoutes[problemId] = lastId;\r\n\t\t\tProblemDetail[problemId].answerList.push(userId);\r\n\t\t\tUserInfo[userId].answerQuestionList[problemId] = problemId;\r\n\t\t}\r\n\t\treturn true;\r\n\t}\r\n\t//\t\r\n\t//  model  [model=0]=>8  [model=1]=>7 [model=2]=>6 [model=3]=>5 \r\n\tfunction chooseAnwser(uint userId, uint256 problemId, uint ansId) payable public {\r\n\t    require(msg.sender == AddressOf(userId)); \r\n\t\trequire(ProblemDetail[problemId].inqurier == userId);\r\n\t\tProblemDetail[problemId].finished = true;\r\n\t\tProblemDetail[problemId].answer = ansId;\r\n\t\tuint model = ProblemDetail[problemId].model;\r\n\t\tuint money = ProblemDetail[problemId].offer * 10 ** uint256(decimals);\r\n\r\n\t\tuint moneyForAnswer = money * compartmentalized[model] / 10;\r\n\t\tuint moneyForTransfer = (money - moneyForAnswer);\r\n\t\t\r\n\t\t// \r\n\t\tuint nowUser = ansId;\r\n\t\tuint len = 0;\r\n\t    uint all = 0; // \r\n\t\twhile(UserInfo[nowUser].questionRoutes[problemId]!=userId){\r\n\t\t\tnowUser = UserInfo[nowUser].questionRoutes[problemId];\r\n\t\t\tlen += 1;\r\n\t\t\tall += len * 1; // ratio\r\n\t\t}\r\n\t\tUserInfo[ansId].tokensBought += moneyForAnswer;\r\n\t\tUserInfo[ansId].tokensBalance += moneyForAnswer;\r\n\t\t\r\n\t\tif(len > 0){\r\n\t\t    moneyForTransfer = moneyForTransfer / all;\r\n\t\t    nowUser = ansId;\r\n\t\t    while(UserInfo[nowUser].questionRoutes[problemId]!=userId ){\r\n\t\t\t    nowUser = UserInfo[nowUser].questionRoutes[problemId];\r\n\t\t\t    UserInfo[nowUser].tokensBought += moneyForTransfer * len;\r\n\t\t        UserInfo[nowUser].tokensBalance += moneyForTransfer * len;\r\n\t\t        len -= 1;\r\n\t\t    }\r\n\t\t} else {\r\n\t\t    balanceTokens += moneyForTransfer;\r\n\t\t}\r\n\t}\r\n\t\r\n\t// \r\n\tfunction NoAnswer(uint userId, uint problemId) public {\r\n\t\trequire(now > ProblemDetail[problemId].createTime + ProblemDetail[problemId].limit * 1 days);\r\n\t\tuint money = ProblemDetail[problemId].offer * 10 ** uint256(decimals);\r\n\t\tuint moneyForRefund = money * 8 / 10;\r\n\t\tUserInfo[userId].tokensBalance += moneyForRefund;\r\n\t\tUserInfo[userId].tokensBought += moneyForRefund;\r\n\t\tuint moneyForTransfer = (money - moneyForRefund);\r\n\t\t// \r\n\t\tuint totalNum = ProblemDetail[problemId].answerList.length;\r\n\t\tuint nowAnswer;\r\n\t\tuint lastTransfer;\r\n\t\tfor (uint i=0; i<ProblemDetail[problemId].answerList.length; i++) {\r\n\t\t\t nowAnswer = ProblemDetail[problemId].answerList[i];\r\n\t\t\t lastTransfer = UserInfo[nowAnswer].questionRoutes[problemId];\r\n\t\t\tif(transfer[problemId][lastTransfer] == None) {\r\n\t\t\t\ttotalNum += 1;\r\n\t\t\t\ttransfer[problemId][lastTransfer] = lastTransfer;\t\t\t\t\r\n\t\t\t}\r\n\t\t}\r\n\t\tuint perBouns = moneyForTransfer / totalNum;\r\n// \t\tdelete it!!!! transfer[problemId];\r\n        for (i = 0; i< ProblemDetail[problemId].answerList.length; i++){\r\n            nowAnswer = ProblemDetail[problemId].answerList[i];\r\n            lastTransfer = UserInfo[nowAnswer].questionRoutes[problemId];\r\n            delete transfer[problemId][lastTransfer];\r\n        }\r\n\r\n\r\n\t\tuint lastAgainTransfer;\r\n\t\tfor (uint j= 0; j < ProblemDetail[problemId].answerList.length; j++) {\r\n\t\t\tnowAnswer = ProblemDetail[problemId].answerList[j];\r\n\t\t\tUserInfo[nowAnswer].tokensBalance += perBouns;\r\n\t\t\tUserInfo[nowAnswer].tokensBought += perBouns;\t\t\t\r\n\t\t\tlastAgainTransfer = UserInfo[nowAnswer].questionRoutes[problemId];\r\n\t\t\tif(transfer[problemId][lastAgainTransfer] == None) {\r\n\t\t\t\ttransfer[problemId][lastAgainTransfer] = lastAgainTransfer;\r\n\t\t\t\tUserInfo[lastAgainTransfer].tokensBalance += perBouns;\r\n\t\t\t\tUserInfo[lastAgainTransfer].tokensBought += perBouns;\t\r\n\t\t\t}\r\n\t\t}\r\n\t\tProblemDetail[problemId].finished = true;\r\n\t}\r\n\r\n\t// \r\n\tfunction getTax()  public payable returns (bool) {\r\n\t\trequire(unTaxedpool >= 100 ether);\r\n\t\trequire(platformAddress != 0x0);\r\n\t\tplatformAddress.transfer(unTaxedpool);\r\n\t\tunTaxedpool = 0;\r\n\t\treturn true;\r\n\t}\r\n\t\r\n\tfunction tokensSold() view public returns (uint) {\r\n    \treturn totalTokens - balanceTokens;\r\n  \t}\r\n\r\n \tfunction UserDetails(uint userId) view public returns (uint, uint) {\r\n   \t \treturn (UserInfo[userId].tokensBought, UserInfo[userId].tokensBalance);\r\n \t}\r\n}",
  "sourcePath": "/var/www/html/tap4fun/WrappedChain/contracts/OurCoins.sol",
  "compiler": {
    "name": "solc",
    "version": "0.4.24+commit.e67f0147.Emscripten.clang"
  },
  "schemaVersion": "2.0.1",
  "updatedAt": "2018-08-09T12:33:10.649Z"
}