{
  "contractName": "Voting",
  "abi": [
    {
      "constant": true,
      "inputs": [
        {
          "name": "",
          "type": "bytes32"
        }
      ],
      "name": "votesReceived",
      "outputs": [
        {
          "name": "",
          "type": "uint256"
        }
      ],
      "payable": false,
      "stateMutability": "view",
      "type": "function"
    },
    {
      "constant": true,
      "inputs": [],
      "name": "totalTokens",
      "outputs": [
        {
          "name": "",
          "type": "uint256"
        }
      ],
      "payable": false,
      "stateMutability": "view",
      "type": "function"
    },
    {
      "constant": true,
      "inputs": [],
      "name": "tokenPrice",
      "outputs": [
        {
          "name": "",
          "type": "uint256"
        }
      ],
      "payable": false,
      "stateMutability": "view",
      "type": "function"
    },
    {
      "constant": true,
      "inputs": [
        {
          "name": "",
          "type": "uint256"
        }
      ],
      "name": "candidateList",
      "outputs": [
        {
          "name": "",
          "type": "bytes32"
        }
      ],
      "payable": false,
      "stateMutability": "view",
      "type": "function"
    },
    {
      "constant": true,
      "inputs": [
        {
          "name": "",
          "type": "address"
        }
      ],
      "name": "voterInfo",
      "outputs": [
        {
          "name": "voterAddress",
          "type": "address"
        },
        {
          "name": "tokensBought",
          "type": "uint256"
        }
      ],
      "payable": false,
      "stateMutability": "view",
      "type": "function"
    },
    {
      "constant": true,
      "inputs": [],
      "name": "balanceTokens",
      "outputs": [
        {
          "name": "",
          "type": "uint256"
        }
      ],
      "payable": false,
      "stateMutability": "view",
      "type": "function"
    },
    {
      "inputs": [
        {
          "name": "tokens",
          "type": "uint256"
        },
        {
          "name": "pricePerToken",
          "type": "uint256"
        },
        {
          "name": "candidateNames",
          "type": "bytes32[]"
        }
      ],
      "payable": false,
      "stateMutability": "nonpayable",
      "type": "constructor"
    },
    {
      "constant": true,
      "inputs": [
        {
          "name": "candidate",
          "type": "bytes32"
        }
      ],
      "name": "totalVotesFor",
      "outputs": [
        {
          "name": "",
          "type": "uint256"
        }
      ],
      "payable": false,
      "stateMutability": "view",
      "type": "function"
    },
    {
      "constant": false,
      "inputs": [
        {
          "name": "candidate",
          "type": "bytes32"
        },
        {
          "name": "votesInTokens",
          "type": "uint256"
        }
      ],
      "name": "voteForCandidate",
      "outputs": [],
      "payable": false,
      "stateMutability": "nonpayable",
      "type": "function"
    },
    {
      "constant": false,
      "inputs": [],
      "name": "getCandidateList",
      "outputs": [
        {
          "name": "",
          "type": "bytes32[]"
        }
      ],
      "payable": false,
      "stateMutability": "nonpayable",
      "type": "function"
    },
    {
      "constant": true,
      "inputs": [
        {
          "name": "candidate",
          "type": "bytes32"
        }
      ],
      "name": "validCandidate",
      "outputs": [
        {
          "name": "",
          "type": "bool"
        }
      ],
      "payable": false,
      "stateMutability": "view",
      "type": "function"
    },
    {
      "constant": true,
      "inputs": [
        {
          "name": "candidate",
          "type": "bytes32"
        }
      ],
      "name": "indexOfCandidate",
      "outputs": [
        {
          "name": "",
          "type": "uint256"
        }
      ],
      "payable": false,
      "stateMutability": "view",
      "type": "function"
    },
    {
      "constant": false,
      "inputs": [],
      "name": "buy",
      "outputs": [
        {
          "name": "",
          "type": "uint256"
        }
      ],
      "payable": true,
      "stateMutability": "payable",
      "type": "function"
    },
    {
      "constant": false,
      "inputs": [
        {
          "name": "account",
          "type": "address"
        }
      ],
      "name": "transferTo",
      "outputs": [],
      "payable": false,
      "stateMutability": "nonpayable",
      "type": "function"
    },
    {
      "constant": true,
      "inputs": [],
      "name": "tokensSold",
      "outputs": [
        {
          "name": "",
          "type": "uint256"
        }
      ],
      "payable": false,
      "stateMutability": "view",
      "type": "function"
    },
    {
      "constant": true,
      "inputs": [
        {
          "name": "user",
          "type": "address"
        }
      ],
      "name": "voterDetails",
      "outputs": [
        {
          "name": "",
          "type": "uint256"
        },
        {
          "name": "",
          "type": "uint256[]"
        }
      ],
      "payable": false,
      "stateMutability": "view",
      "type": "function"
    }
  ],
  "bytecode": "0x608060405234801561001057600080fd5b50604051610da7380380610da7833981018060405281019080805190602001909291908051906020019092919080518201929190505050806002908051906020019061005d92919061007b565b508260038190555082600481905550816005819055505050506100f3565b8280548282559060005260206000209081019282156100bd579160200282015b828111156100bc57825182906000191690559160200191906001019061009b565b5b5090506100ca91906100ce565b5090565b6100f091905b808211156100ec5760008160009055506001016100d4565b5090565b90565b610ca5806101026000396000f3006080604052600436106100db576000357c0100000000000000000000000000000000000000000000000000000000900463ffffffff1680632f265cf7146100e0578063392e667814610125578063518ab2a81461016e5780635938750d146101995780636b2dc6b5146102385780637021939f146102735780637e1c0c09146102b85780637ff9b596146102e3578063a03fa7e31461030e578063a6f2ae3a14610351578063b13c744b1461036f578063cdf58d35146103b8578063e4494a0f14610442578063ecd098b01461046d578063fdbc4006146104b2575b600080fd5b3480156100ec57600080fd5b5061010f600480360381019080803560001916906020019092919050505061051e565b6040518082815260200191505060405180910390f35b34801561013157600080fd5b506101546004803603810190808035600019169060200190929190505050610556565b604051808215151515815260200191505060405180910390f35b34801561017a57600080fd5b506101836105b5565b6040518082815260200191505060405180910390f35b3480156101a557600080fd5b506101da600480360381019080803573ffffffffffffffffffffffffffffffffffffffff1690602001909291905050506105c3565b6040518083815260200180602001828103825283818151815260200191508051906020019060200280838360005b83811015610223578082015181840152602081019050610208565b50505050905001935050505060405180910390f35b34801561024457600080fd5b506102716004803603810190808035600019169060200190929190803590602001909291905050506106a7565b005b34801561027f57600080fd5b506102a26004803603810190808035600019169060200190929190505050610959565b6040518082815260200191505060405180910390f35b3480156102c457600080fd5b506102cd610971565b6040518082815260200191505060405180910390f35b3480156102ef57600080fd5b506102f8610977565b6040518082815260200191505060405180910390f35b34801561031a57600080fd5b5061034f600480360381019080803573ffffffffffffffffffffffffffffffffffffffff16906020019092919050505061097d565b005b6103596109de565b6040518082815260200191505060405180910390f35b34801561037b57600080fd5b5061039a60048036038101908080359060200190929190505050610aea565b60405180826000191660001916815260200191505060405180910390f35b3480156103c457600080fd5b506103f9600480360381019080803573ffffffffffffffffffffffffffffffffffffffff169060200190929190505050610b0d565b604051808373ffffffffffffffffffffffffffffffffffffffff1673ffffffffffffffffffffffffffffffffffffffff1681526020018281526020019250505060405180910390f35b34801561044e57600080fd5b50610457610b51565b6040518082815260200191505060405180910390f35b34801561047957600080fd5b5061049c6004803603810190808035600019169060200190929190505050610b57565b6040518082815260200191505060405180910390f35b3480156104be57600080fd5b506104c7610bd4565b6040518080602001828103825283818151815260200191508051906020019060200280838360005b8381101561050a5780820151818401526020810190506104ef565b505050509050019250505060405180910390f35b600061052982610556565b151561053457600080fd5b6000808360001916600019168152602001908152602001600020549050919050565b600080600090505b6002805490508110156105aa57826000191660028281548110151561057f57fe5b906000526020600020015460001916141561059d57600191506105af565b808060010191505061055e565b600091505b50919050565b600060045460035403905090565b60006060600160008473ffffffffffffffffffffffffffffffffffffffff1673ffffffffffffffffffffffffffffffffffffffff16815260200190815260200160002060010154600160008573ffffffffffffffffffffffffffffffffffffffff1673ffffffffffffffffffffffffffffffffffffffff1681526020019081526020016000206002018080548060200260200160405190810160405280929190818152602001828054801561069757602002820191906000526020600020905b815481526020019060010190808311610683575b5050505050905091509150915091565b60008060006106b585610b57565b92507fffffffffffffffffffffffffffffffffffffffffffffffffffffffffffffffff83141515156106e657600080fd5b6000600160003373ffffffffffffffffffffffffffffffffffffffff1673ffffffffffffffffffffffffffffffffffffffff1681526020019081526020016000206002018054905014156107c157600091505b6002805490508210156107c057600160003373ffffffffffffffffffffffffffffffffffffffff1673ffffffffffffffffffffffffffffffffffffffff168152602001908152602001600020600201600090806001815401808255809150509060018203906000526020600020016000909192909190915055508180600101925050610739565b5b61085a600160003373ffffffffffffffffffffffffffffffffffffffff1673ffffffffffffffffffffffffffffffffffffffff16815260200190815260200160002060020180548060200260200160405190810160405280929190818152602001828054801561085057602002820191906000526020600020905b81548152602001906001019080831161083c575b5050505050610c30565b600160003373ffffffffffffffffffffffffffffffffffffffff1673ffffffffffffffffffffffffffffffffffffffff168152602001908152602001600020600101540390508381101515156108af57600080fd5b6108b885610556565b15156108c357600080fd5b8360008087600019166000191681526020019081526020016000206000828254019250508190555083600160003373ffffffffffffffffffffffffffffffffffffffff1673ffffffffffffffffffffffffffffffffffffffff1681526020019081526020016000206002018481548110151561093b57fe5b90600052602060002001600082825401925050819055505050505050565b60006020528060005260406000206000915090505481565b60035481565b60055481565b8073ffffffffffffffffffffffffffffffffffffffff166108fc3073ffffffffffffffffffffffffffffffffffffffff16319081150290604051600060405180830381858888f193505050501580156109da573d6000803e3d6000fd5b5050565b600080600554348115156109ee57fe5b0490506004548111151515610a0257600080fd5b33600160003373ffffffffffffffffffffffffffffffffffffffff1673ffffffffffffffffffffffffffffffffffffffff16815260200190815260200160002060000160006101000a81548173ffffffffffffffffffffffffffffffffffffffff021916908373ffffffffffffffffffffffffffffffffffffffff16021790555080600160003373ffffffffffffffffffffffffffffffffffffffff1673ffffffffffffffffffffffffffffffffffffffff16815260200190815260200160002060010160008282540192505081905550806004600082825403925050819055508091505090565b600281815481101515610af957fe5b906000526020600020016000915090505481565b60016020528060005260406000206000915090508060000160009054906101000a900473ffffffffffffffffffffffffffffffffffffffff16908060010154905082565b60045481565b600080600090505b600280549050811015610baa578260001916600282815481101515610b8057fe5b9060005260206000200154600019161415610b9d57809150610bce565b8080600101915050610b5f565b7fffffffffffffffffffffffffffffffffffffffffffffffffffffffffffffffff91505b50919050565b60606002805480602002602001604051908101604052809291908181526020018280548015610c2657602002820191906000526020600020905b81546000191681526020019060010190808311610c0e575b5050505050905090565b6000806000809150600090505b8351811015610c6f578381815181101515610c5457fe5b90602001906020020151820191508080600101915050610c3d565b81925050509190505600a165627a7a723058208a50462dce63af800f64b561ccdf66c7ef0babfc8af859e8ab5b0147aac80e6c0029",
  "source": "pragma solidity ^0.4.18;\r\n\r\ncontract Voting {\r\n\r\n  // 在Solidity中constant、view、pure三个函数修饰词的作用是告诉编译器，\r\n  // 函数不改变/不读取状态变量，这样函数执行就可以不消耗gas了，因为不需要矿工来验证。\r\n  // 在Solidity v4.17之前，只有constant，后续版本将constant拆成了view和pure。\r\n  // view的作用和constant一模一样，可以读取状态变量但是不能改；pure则更为严格，\r\n  // pure修饰的函数不能改也不能读状态变量，只能操作函数内部变量，否则编译通不过。\r\n\r\n\r\n  struct voter {\r\n    address voterAddress;          // 投票人账户地址\r\n    uint  tokensBought;            // 投票人持有的股票通证总量\r\n    uint[] tokensUsedPerCandidate; // 为每个候选人消耗的股票通证\r\n  }\r\n\r\n  // 以下均为状态变量\r\n  mapping (bytes32 => uint) public votesReceived; // {候选人: 得票数}\r\n  mapping (address => voter) public voterInfo;     // {投票者地址: 投票者完整信息}\r\n  bytes32[] public candidateList;\r\n  uint public totalTokens; \r\n  uint public balanceTokens; //剩余可以交易的token数量\r\n  uint public tokenPrice;\r\n\r\n  // 股票通证发行总量和股票单价\r\n  constructor(uint tokens, uint pricePerToken, bytes32[] candidateNames) public {\r\n    candidateList = candidateNames;\r\n    totalTokens = tokens;\r\n    balanceTokens = tokens;\r\n    tokenPrice = pricePerToken;\r\n  }\r\n\r\n  function totalVotesFor(bytes32 candidate) view public returns (uint) {\r\n    require(validCandidate(candidate));\r\n    return votesReceived[candidate];\r\n  }\r\n\r\n  // 投票的通证数量\r\n  function voteForCandidate(bytes32 candidate, uint votesInTokens) public {\r\n    uint index = indexOfCandidate(candidate);\r\n    require(index != uint(-1));\r\n    // 第一次投票需要初始化voterInfo\r\n    if(voterInfo[msg.sender].tokensUsedPerCandidate.length == 0) {\r\n       for(uint i = 0; i < candidateList.length; i++) {\r\n        voterInfo[msg.sender].tokensUsedPerCandidate.push(0);\r\n        }\r\n    }\r\n    uint availableTokens = voterInfo[msg.sender].tokensBought - \r\n                         totalTokensUsed(voterInfo[msg.sender].tokensUsedPerCandidate);\r\n    require(availableTokens >= votesInTokens);\r\n    require(validCandidate(candidate));\r\n    votesReceived[candidate] += votesInTokens;\r\n    voterInfo[msg.sender].tokensUsedPerCandidate[index] += votesInTokens;\r\n  }\r\n\r\n  function getCandidateList() public returns (bytes32[]){\r\n    return candidateList;\r\n  }\r\n\r\n  function validCandidate(bytes32 candidate) view public returns (bool) {\r\n    for(uint i = 0; i < candidateList.length; i++) {\r\n      if (candidateList[i] == candidate) {\r\n        return true;\r\n      }\r\n    }\r\n    return false;\r\n   }\r\n\r\n   // 获取候选人在数组中的位置\r\n   function indexOfCandidate(bytes32 candidate) view public returns (uint) {\r\n      for(uint i = 0; i < candidateList.length; i++) {\r\n        if (candidateList[i] == candidate) {\r\n           return i;\r\n        }\r\n      }\r\n      return uint(-1);\r\n  }\r\n\r\n\r\n   // 购买发行的token\r\n   function buy() payable public returns (uint) {\r\n     //使用msg.value来读取用户的支付金额，这要求方法必须具有payable声明\r\n      uint tokensToBuy = msg.value / tokenPrice;   //根据购买金额和通证单价，计算出购买量   \r\n      require(tokensToBuy <= balanceTokens);       //继续执行合约需要确认合约的通证余额不小于购买量  \r\n      voterInfo[msg.sender].voterAddress = msg.sender;    //保存购买人地址，一旦购买就是潜在投票者，将其加入投票者集合\r\n      voterInfo[msg.sender].tokensBought += tokensToBuy;  //更新购买人持股数量\r\n      balanceTokens -= tokensToBuy;                //将售出的通证数量从合约的余额中剔除  \r\n      return tokensToBuy;                          //返回本次购买的通证数量\r\n   }\r\n\r\n    // 转移合约资金到指定账户\r\n    // TODO 应该指定白名单\r\n   function transferTo(address account) public {\r\n      account.transfer(this.balance);\r\n    }\r\n\r\n  // 计算用户已经消耗的所有token\r\n  function totalTokensUsed(uint[] _tokensUsedPerCandidate) private pure returns (uint) {\r\n    uint totalUsedTokens = 0;\r\n    for(uint i = 0; i < _tokensUsedPerCandidate.length; i++) {\r\n        totalUsedTokens += _tokensUsedPerCandidate[i];\r\n    }\r\n    return totalUsedTokens;\r\n  }\r\n\r\n  function tokensSold() view public returns (uint) {\r\n    return totalTokens - balanceTokens;\r\n  }\r\n\r\n function voterDetails(address user) view public returns (uint, uint[]) {\r\n    return (voterInfo[user].tokensBought, voterInfo[user].tokensUsedPerCandidate);\r\n }\r\n}",
  "sourcePath": "/var/www/html/tap4fun/WrappedChain/contracts/Voting.sol",
  "compiler": {
    "name": "solc",
    "version": "0.4.24+commit.e67f0147.Emscripten.clang"
  },
  "schemaVersion": "2.0.1",
  "updatedAt": "2018-08-09T12:33:10.595Z"
}